{
  "_format": "hh-sol-artifact-1",
  "contractName": "SimpleNFTCreator",
  "sourceName": "contracts/SimpleNFTCreator.sol",
  "abi": [
    {
      "inputs": [],
      "stateMutability": "nonpayable",
      "type": "constructor"
    },
    {
      "anonymous": false,
      "inputs": [
        {
          "indexed": true,
          "internalType": "address",
          "name": "owner",
          "type": "address"
        },
        {
          "indexed": true,
          "internalType": "address",
          "name": "approved",
          "type": "address"
        },
        {
          "indexed": true,
          "internalType": "uint256",
          "name": "tokenId",
          "type": "uint256"
        }
      ],
      "name": "Approval",
      "type": "event"
    },
    {
      "anonymous": false,
      "inputs": [
        {
          "indexed": true,
          "internalType": "address",
          "name": "owner",
          "type": "address"
        },
        {
          "indexed": true,
          "internalType": "address",
          "name": "operator",
          "type": "address"
        },
        {
          "indexed": false,
          "internalType": "bool",
          "name": "approved",
          "type": "bool"
        }
      ],
      "name": "ApprovalForAll",
      "type": "event"
    },
    {
      "anonymous": false,
      "inputs": [
        {
          "indexed": true,
          "internalType": "address",
          "name": "from",
          "type": "address"
        },
        {
          "indexed": true,
          "internalType": "address",
          "name": "to",
          "type": "address"
        },
        {
          "indexed": true,
          "internalType": "uint256",
          "name": "tokenId",
          "type": "uint256"
        }
      ],
      "name": "Transfer",
      "type": "event"
    },
    {
      "inputs": [
        {
          "internalType": "uint256",
          "name": "",
          "type": "uint256"
        }
      ],
      "name": "_nft_",
      "outputs": [
        {
          "internalType": "uint256",
          "name": "_id",
          "type": "uint256"
        },
        {
          "internalType": "string",
          "name": "_data",
          "type": "string"
        }
      ],
      "stateMutability": "view",
      "type": "function"
    },
    {
      "inputs": [
        {
          "internalType": "uint256",
          "name": "_itemID",
          "type": "uint256"
        },
        {
          "internalType": "string",
          "name": "_nftData",
          "type": "string"
        }
      ],
      "name": "addNFT",
      "outputs": [],
      "stateMutability": "nonpayable",
      "type": "function"
    },
    {
      "inputs": [
        {
          "internalType": "address",
          "name": "to",
          "type": "address"
        },
        {
          "internalType": "uint256",
          "name": "tokenId",
          "type": "uint256"
        }
      ],
      "name": "approve",
      "outputs": [],
      "stateMutability": "nonpayable",
      "type": "function"
    },
    {
      "inputs": [
        {
          "internalType": "address",
          "name": "owner",
          "type": "address"
        }
      ],
      "name": "balanceOf",
      "outputs": [
        {
          "internalType": "uint256",
          "name": "",
          "type": "uint256"
        }
      ],
      "stateMutability": "view",
      "type": "function"
    },
    {
      "inputs": [
        {
          "internalType": "uint256",
          "name": "tokenId",
          "type": "uint256"
        }
      ],
      "name": "getApproved",
      "outputs": [
        {
          "internalType": "address",
          "name": "",
          "type": "address"
        }
      ],
      "stateMutability": "view",
      "type": "function"
    },
    {
      "inputs": [],
      "name": "getNFTCount",
      "outputs": [
        {
          "internalType": "uint256",
          "name": "",
          "type": "uint256"
        }
      ],
      "stateMutability": "view",
      "type": "function"
    },
    {
      "inputs": [
        {
          "internalType": "uint256",
          "name": "_itemID",
          "type": "uint256"
        }
      ],
      "name": "getNFTData",
      "outputs": [
        {
          "internalType": "string",
          "name": "",
          "type": "string"
        }
      ],
      "stateMutability": "view",
      "type": "function"
    },
    {
      "inputs": [
        {
          "internalType": "uint256",
          "name": "",
          "type": "uint256"
        }
      ],
      "name": "idToNFT",
      "outputs": [
        {
          "internalType": "string",
          "name": "",
          "type": "string"
        }
      ],
      "stateMutability": "view",
      "type": "function"
    },
    {
      "inputs": [
        {
          "internalType": "address",
          "name": "owner",
          "type": "address"
        },
        {
          "internalType": "address",
          "name": "operator",
          "type": "address"
        }
      ],
      "name": "isApprovedForAll",
      "outputs": [
        {
          "internalType": "bool",
          "name": "",
          "type": "bool"
        }
      ],
      "stateMutability": "view",
      "type": "function"
    },
    {
      "inputs": [
        {
          "internalType": "uint256",
          "name": "_itemID",
          "type": "uint256"
        },
        {
          "internalType": "string",
          "name": "_nftData",
          "type": "string"
        }
      ],
      "name": "makeSimpleNFT",
      "outputs": [],
      "stateMutability": "nonpayable",
      "type": "function"
    },
    {
      "inputs": [],
      "name": "name",
      "outputs": [
        {
          "internalType": "string",
          "name": "",
          "type": "string"
        }
      ],
      "stateMutability": "view",
      "type": "function"
    },
    {
      "inputs": [
        {
          "internalType": "uint256",
          "name": "tokenId",
          "type": "uint256"
        }
      ],
      "name": "ownerOf",
      "outputs": [
        {
          "internalType": "address",
          "name": "",
          "type": "address"
        }
      ],
      "stateMutability": "view",
      "type": "function"
    },
    {
      "inputs": [
        {
          "internalType": "address",
          "name": "from",
          "type": "address"
        },
        {
          "internalType": "address",
          "name": "to",
          "type": "address"
        },
        {
          "internalType": "uint256",
          "name": "tokenId",
          "type": "uint256"
        }
      ],
      "name": "safeTransferFrom",
      "outputs": [],
      "stateMutability": "nonpayable",
      "type": "function"
    },
    {
      "inputs": [
        {
          "internalType": "address",
          "name": "from",
          "type": "address"
        },
        {
          "internalType": "address",
          "name": "to",
          "type": "address"
        },
        {
          "internalType": "uint256",
          "name": "tokenId",
          "type": "uint256"
        },
        {
          "internalType": "bytes",
          "name": "data",
          "type": "bytes"
        }
      ],
      "name": "safeTransferFrom",
      "outputs": [],
      "stateMutability": "nonpayable",
      "type": "function"
    },
    {
      "inputs": [
        {
          "internalType": "address",
          "name": "operator",
          "type": "address"
        },
        {
          "internalType": "bool",
          "name": "approved",
          "type": "bool"
        }
      ],
      "name": "setApprovalForAll",
      "outputs": [],
      "stateMutability": "nonpayable",
      "type": "function"
    },
    {
      "inputs": [
        {
          "internalType": "bytes4",
          "name": "interfaceId",
          "type": "bytes4"
        }
      ],
      "name": "supportsInterface",
      "outputs": [
        {
          "internalType": "bool",
          "name": "",
          "type": "bool"
        }
      ],
      "stateMutability": "view",
      "type": "function"
    },
    {
      "inputs": [],
      "name": "symbol",
      "outputs": [
        {
          "internalType": "string",
          "name": "",
          "type": "string"
        }
      ],
      "stateMutability": "view",
      "type": "function"
    },
    {
      "inputs": [
        {
          "internalType": "uint256",
          "name": "_tokenId",
          "type": "uint256"
        }
      ],
      "name": "tokenURI",
      "outputs": [
        {
          "internalType": "string",
          "name": "",
          "type": "string"
        }
      ],
      "stateMutability": "view",
      "type": "function"
    },
    {
      "inputs": [
        {
          "internalType": "address",
          "name": "from",
          "type": "address"
        },
        {
          "internalType": "address",
          "name": "to",
          "type": "address"
        },
        {
          "internalType": "uint256",
          "name": "tokenId",
          "type": "uint256"
        }
      ],
      "name": "transferFrom",
      "outputs": [],
      "stateMutability": "nonpayable",
      "type": "function"
    }
  ],
  "bytecode": "0x60806040523480156200001157600080fd5b506040518060400160405280601081526020017f53696d706c654e465443726561746f72000000000000000000000000000000008152506040518060400160405280600581526020017f534e46544300000000000000000000000000000000000000000000000000000081525081600090816200008f91906200043b565b508060019081620000a191906200043b565b505050620000ef6040518060400160405280601581526020017f4e465420636f6e7472616374206465706c6f7965640000000000000000000000815250620000f560201b62000e9b1760201c565b620005d5565b62000195816040516024016200010c9190620005b1565b6040516020818303038152906040527f41304fac000000000000000000000000000000000000000000000000000000007bffffffffffffffffffffffffffffffffffffffffffffffffffffffff19166020820180517bffffffffffffffffffffffffffffffffffffffffffffffffffffffff83818316178352505050506200019860201b60201c565b50565b60008151905060006a636f6e736f6c652e6c6f679050602083016000808483855afa5050505050565b600081519050919050565b7f4e487b7100000000000000000000000000000000000000000000000000000000600052604160045260246000fd5b7f4e487b7100000000000000000000000000000000000000000000000000000000600052602260045260246000fd5b600060028204905060018216806200024357607f821691505b602082108103620002595762000258620001fb565b5b50919050565b60008190508160005260206000209050919050565b60006020601f8301049050919050565b600082821b905092915050565b600060088302620002c37fffffffffffffffffffffffffffffffffffffffffffffffffffffffffffffffff8262000284565b620002cf868362000284565b95508019841693508086168417925050509392505050565b6000819050919050565b6000819050919050565b60006200031c620003166200031084620002e7565b620002f1565b620002e7565b9050919050565b6000819050919050565b6200033883620002fb565b62000350620003478262000323565b84845462000291565b825550505050565b600090565b6200036762000358565b620003748184846200032d565b505050565b5b818110156200039c57620003906000826200035d565b6001810190506200037a565b5050565b601f821115620003eb57620003b5816200025f565b620003c08462000274565b81016020851015620003d0578190505b620003e8620003df8562000274565b83018262000379565b50505b505050565b600082821c905092915050565b60006200041060001984600802620003f0565b1980831691505092915050565b60006200042b8383620003fd565b9150826002028217905092915050565b6200044682620001c1565b67ffffffffffffffff811115620004625762000461620001cc565b5b6200046e82546200022a565b6200047b828285620003a0565b600060209050601f831160018114620004b357600084156200049e578287015190505b620004aa85826200041d565b8655506200051a565b601f198416620004c3866200025f565b60005b82811015620004ed57848901518255600182019150602085019450602081019050620004c6565b868310156200050d578489015162000509601f891682620003fd565b8355505b6001600288020188555050505b505050505050565b600082825260208201905092915050565b60005b838110156200055357808201518184015260208101905062000536565b60008484015250505050565b6000601f19601f8301169050919050565b60006200057d82620001c1565b62000589818562000522565b93506200059b81856020860162000533565b620005a6816200055f565b840191505092915050565b60006020820190508181036000830152620005cd818462000570565b905092915050565b612fb880620005e56000396000f3fe608060405234801561001057600080fd5b50600436106101215760003560e01c8063605c454b116100ad578063aba1803711610071578063aba180371461032c578063b88d4fde1461035d578063c87b56dd14610379578063d8670598146103a9578063e985e9c5146103c557610121565b8063605c454b146102765780636352211e1461029257806370a08231146102c257806395d89b41146102f2578063a22cb4651461031057610121565b80630ad4c4f4116100f45780630ad4c4f4146101c057806323b872dd146101f057806333aa49cd1461020c57806342842e0e1461023c578063542796371461025857610121565b806301ffc9a71461012657806306fdde0314610156578063081812fc14610174578063095ea7b3146101a4575b600080fd5b610140600480360381019061013b9190611c68565b6103f5565b60405161014d9190611cb0565b60405180910390f35b61015e6104d7565b60405161016b9190611d5b565b60405180910390f35b61018e60048036038101906101899190611db3565b610569565b60405161019b9190611e21565b60405180910390f35b6101be60048036038101906101b99190611e68565b6105af565b005b6101da60048036038101906101d59190611db3565b6106c6565b6040516101e79190611d5b565b60405180910390f35b61020a60048036038101906102059190611ea8565b61077d565b005b61022660048036038101906102219190611db3565b6107dd565b6040516102339190611d5b565b60405180910390f35b61025660048036038101906102519190611ea8565b61087d565b005b61026061089d565b60405161026d9190611f0a565b60405180910390f35b610290600480360381019061028b919061205a565b6108aa565b005b6102ac60048036038101906102a79190611db3565b6109b2565b6040516102b99190611e21565b60405180910390f35b6102dc60048036038101906102d791906120b6565b610a63565b6040516102e99190611f0a565b60405180910390f35b6102fa610b1a565b6040516103079190611d5b565b60405180910390f35b61032a6004803603810190610325919061210f565b610bac565b005b61034660048036038101906103419190611db3565b610bc2565b60405161035492919061214f565b60405180910390f35b61037760048036038101906103729190612220565b610c7e565b005b610393600480360381019061038e9190611db3565b610ce0565b6040516103a09190611d5b565b60405180910390f35b6103c360048036038101906103be919061205a565b610d42565b005b6103df60048036038101906103da91906122a3565b610e07565b6040516103ec9190611cb0565b60405180910390f35b60007f80ac58cd000000000000000000000000000000000000000000000000000000007bffffffffffffffffffffffffffffffffffffffffffffffffffffffff1916827bffffffffffffffffffffffffffffffffffffffffffffffffffffffff191614806104c057507f5b5e139f000000000000000000000000000000000000000000000000000000007bffffffffffffffffffffffffffffffffffffffffffffffffffffffff1916827bffffffffffffffffffffffffffffffffffffffffffffffffffffffff1916145b806104d057506104cf82610f34565b5b9050919050565b6060600080546104e690612312565b80601f016020809104026020016040519081016040528092919081815260200182805461051290612312565b801561055f5780601f106105345761010080835404028352916020019161055f565b820191906000526020600020905b81548152906001019060200180831161054257829003601f168201915b5050505050905090565b600061057482610f9e565b6004600083815260200190815260200160002060009054906101000a900473ffffffffffffffffffffffffffffffffffffffff169050919050565b60006105ba826109b2565b90508073ffffffffffffffffffffffffffffffffffffffff168373ffffffffffffffffffffffffffffffffffffffff160361062a576040517f08c379a0000000000000000000000000000000000000000000000000000000008152600401610621906123b5565b60405180910390fd5b8073ffffffffffffffffffffffffffffffffffffffff16610649610fe9565b73ffffffffffffffffffffffffffffffffffffffff161480610678575061067781610672610fe9565b610e07565b5b6106b7576040517f08c379a00000000000000000000000000000000000000000000000000000000081526004016106ae90612447565b60405180910390fd5b6106c18383610ff1565b505050565b6060600882815481106106dc576106db612467565b5b906000526020600020906002020160010180546106f890612312565b80601f016020809104026020016040519081016040528092919081815260200182805461072490612312565b80156107715780601f1061074657610100808354040283529160200191610771565b820191906000526020600020905b81548152906001019060200180831161075457829003601f168201915b50505050509050919050565b61078e610788610fe9565b826110aa565b6107cd576040517f08c379a00000000000000000000000000000000000000000000000000000000081526004016107c490612508565b60405180910390fd5b6107d883838361113f565b505050565b600960205280600052604060002060009150905080546107fc90612312565b80601f016020809104026020016040519081016040528092919081815260200182805461082890612312565b80156108755780601f1061084a57610100808354040283529160200191610875565b820191906000526020600020905b81548152906001019060200180831161085857829003601f168201915b505050505081565b61089883838360405180602001604052806000815250610c7e565b505050565b6000600880549050905090565b6108b3816113a5565b600790816108c191906126d4565b5060086040518060400160405280848152602001600780546108e290612312565b80601f016020809104026020016040519081016040528092919081815260200182805461090e90612312565b801561095b5780601f106109305761010080835404028352916020019161095b565b820191906000526020600020905b81548152906001019060200180831161093e57829003601f168201915b505050505081525090806001815401808255809150506001900390600052602060002090600202016000909190919091506000820151816000015560208201518160010190816109ab91906126d4565b5050505050565b6000806002600084815260200190815260200160002060009054906101000a900473ffffffffffffffffffffffffffffffffffffffff169050600073ffffffffffffffffffffffffffffffffffffffff168173ffffffffffffffffffffffffffffffffffffffff1603610a5a576040517f08c379a0000000000000000000000000000000000000000000000000000000008152600401610a51906127f2565b60405180910390fd5b80915050919050565b60008073ffffffffffffffffffffffffffffffffffffffff168273ffffffffffffffffffffffffffffffffffffffff1603610ad3576040517f08c379a0000000000000000000000000000000000000000000000000000000008152600401610aca90612884565b60405180910390fd5b600360008373ffffffffffffffffffffffffffffffffffffffff1673ffffffffffffffffffffffffffffffffffffffff168152602001908152602001600020549050919050565b606060018054610b2990612312565b80601f0160208091040260200160405190810160405280929190818152602001828054610b5590612312565b8015610ba25780601f10610b7757610100808354040283529160200191610ba2565b820191906000526020600020905b815481529060010190602001808311610b8557829003601f168201915b5050505050905090565b610bbe610bb7610fe9565b8383611508565b5050565b60088181548110610bd257600080fd5b9060005260206000209060020201600091509050806000015490806001018054610bfb90612312565b80601f0160208091040260200160405190810160405280929190818152602001828054610c2790612312565b8015610c745780601f10610c4957610100808354040283529160200191610c74565b820191906000526020600020905b815481529060010190602001808311610c5757829003601f168201915b5050505050905082565b610c8f610c89610fe9565b836110aa565b610cce576040517f08c379a0000000000000000000000000000000000000000000000000000000008152600401610cc590612508565b60405180910390fd5b610cda84848484611674565b50505050565b6060610ceb826116d0565b610cf457600080fd5b610cfd826106c6565b604051602001610d0d9190612906565b604051602081830303815290604052604051602001610d2c9190612978565b6040516020818303038152906040529050919050565b610d4c82826108aa565b6000610d58600a61173c565b9050610d64338261174a565b610df88160078054610d7590612312565b80601f0160208091040260200160405190810160405280929190818152602001828054610da190612312565b8015610dee5780601f10610dc357610100808354040283529160200191610dee565b820191906000526020600020905b815481529060010190602001808311610dd157829003601f168201915b5050505050611768565b610e02600a6117d5565b505050565b6000600560008473ffffffffffffffffffffffffffffffffffffffff1673ffffffffffffffffffffffffffffffffffffffff16815260200190815260200160002060008373ffffffffffffffffffffffffffffffffffffffff1673ffffffffffffffffffffffffffffffffffffffff16815260200190815260200160002060009054906101000a900460ff16905092915050565b610f3181604051602401610eaf9190611d5b565b6040516020818303038152906040527f41304fac000000000000000000000000000000000000000000000000000000007bffffffffffffffffffffffffffffffffffffffffffffffffffffffff19166020820180517bffffffffffffffffffffffffffffffffffffffffffffffffffffffff83818316178352505050506117eb565b50565b60007f01ffc9a7000000000000000000000000000000000000000000000000000000007bffffffffffffffffffffffffffffffffffffffffffffffffffffffff1916827bffffffffffffffffffffffffffffffffffffffffffffffffffffffff1916149050919050565b610fa7816116d0565b610fe6576040517f08c379a0000000000000000000000000000000000000000000000000000000008152600401610fdd906127f2565b60405180910390fd5b50565b600033905090565b816004600083815260200190815260200160002060006101000a81548173ffffffffffffffffffffffffffffffffffffffff021916908373ffffffffffffffffffffffffffffffffffffffff160217905550808273ffffffffffffffffffffffffffffffffffffffff16611064836109b2565b73ffffffffffffffffffffffffffffffffffffffff167f8c5be1e5ebec7d5bd14f71427d1e84f3dd0314c0f7b2291e5b200ac8c7c3b92560405160405180910390a45050565b6000806110b6836109b2565b90508073ffffffffffffffffffffffffffffffffffffffff168473ffffffffffffffffffffffffffffffffffffffff1614806110f857506110f78185610e07565b5b8061113657508373ffffffffffffffffffffffffffffffffffffffff1661111e84610569565b73ffffffffffffffffffffffffffffffffffffffff16145b91505092915050565b8273ffffffffffffffffffffffffffffffffffffffff1661115f826109b2565b73ffffffffffffffffffffffffffffffffffffffff16146111b5576040517f08c379a00000000000000000000000000000000000000000000000000000000081526004016111ac90612a0c565b60405180910390fd5b600073ffffffffffffffffffffffffffffffffffffffff168273ffffffffffffffffffffffffffffffffffffffff1603611224576040517f08c379a000000000000000000000000000000000000000000000000000000000815260040161121b90612a9e565b60405180910390fd5b61122f838383611814565b61123a600082610ff1565b6001600360008573ffffffffffffffffffffffffffffffffffffffff1673ffffffffffffffffffffffffffffffffffffffff168152602001908152602001600020600082825461128a9190612aed565b925050819055506001600360008473ffffffffffffffffffffffffffffffffffffffff1673ffffffffffffffffffffffffffffffffffffffff16815260200190815260200160002060008282546112e19190612b21565b92505081905550816002600083815260200190815260200160002060006101000a81548173ffffffffffffffffffffffffffffffffffffffff021916908373ffffffffffffffffffffffffffffffffffffffff160217905550808273ffffffffffffffffffffffffffffffffffffffff168473ffffffffffffffffffffffffffffffffffffffff167fddf252ad1be2c89b69c2b068fc378daa952ba7f163c4a11628f55a4df523b3ef60405160405180910390a46113a0838383611819565b505050565b606060008251036113c757604051806020016040528060008152509050611503565b6000604051806060016040528060408152602001612f4360409139905060006003600285516113f69190612b21565b6114009190612b84565b600461140c9190612bb5565b67ffffffffffffffff81111561142557611424611f2f565b5b6040519080825280601f01601f1916602001820160405280156114575781602001600182028036833780820191505090505b509050600182016020820185865187015b808210156114c3576003820191508151603f8160121c168501518453600184019350603f81600c1c168501518453600184019350603f8160061c168501518453600184019350603f8116850151845360018401935050611468565b50506003865106600181146114df57600281146114f2576114fa565b603d6001830353603d60028303536114fa565b603d60018303535b50505080925050505b919050565b8173ffffffffffffffffffffffffffffffffffffffff168373ffffffffffffffffffffffffffffffffffffffff1603611576576040517f08c379a000000000000000000000000000000000000000000000000000000000815260040161156d90612c43565b60405180910390fd5b80600560008573ffffffffffffffffffffffffffffffffffffffff1673ffffffffffffffffffffffffffffffffffffffff16815260200190815260200160002060008473ffffffffffffffffffffffffffffffffffffffff1673ffffffffffffffffffffffffffffffffffffffff16815260200190815260200160002060006101000a81548160ff0219169083151502179055508173ffffffffffffffffffffffffffffffffffffffff168373ffffffffffffffffffffffffffffffffffffffff167f17307eab39ab6107e8899845ad3d59bd9653f200f220920489ca2b5937696c31836040516116679190611cb0565b60405180910390a3505050565b61167f84848461113f565b61168b8484848461181e565b6116ca576040517f08c379a00000000000000000000000000000000000000000000000000000000081526004016116c190612cd5565b60405180910390fd5b50505050565b60008073ffffffffffffffffffffffffffffffffffffffff166002600084815260200190815260200160002060009054906101000a900473ffffffffffffffffffffffffffffffffffffffff1673ffffffffffffffffffffffffffffffffffffffff1614159050919050565b600081600001549050919050565b6117648282604051806020016040528060008152506119a5565b5050565b611771826116d0565b6117b0576040517f08c379a00000000000000000000000000000000000000000000000000000000081526004016117a790612d67565b60405180910390fd5b806006600084815260200190815260200160002090816117d091906126d4565b505050565b6001816000016000828254019250508190555050565b60008151905060006a636f6e736f6c652e6c6f679050602083016000808483855afa5050505050565b505050565b505050565b600061183f8473ffffffffffffffffffffffffffffffffffffffff16611a00565b15611998578373ffffffffffffffffffffffffffffffffffffffff1663150b7a02611868610fe9565b8786866040518563ffffffff1660e01b815260040161188a9493929190612ddc565b6020604051808303816000875af19250505080156118c657506040513d601f19601f820116820180604052508101906118c39190612e3d565b60015b611948573d80600081146118f6576040519150601f19603f3d011682016040523d82523d6000602084013e6118fb565b606091505b506000815103611940576040517f08c379a000000000000000000000000000000000000000000000000000000000815260040161193790612cd5565b60405180910390fd5b805181602001fd5b63150b7a0260e01b7bffffffffffffffffffffffffffffffffffffffffffffffffffffffff1916817bffffffffffffffffffffffffffffffffffffffffffffffffffffffff19161491505061199d565b600190505b949350505050565b6119af8383611a23565b6119bc600084848461181e565b6119fb576040517f08c379a00000000000000000000000000000000000000000000000000000000081526004016119f290612cd5565b60405180910390fd5b505050565b6000808273ffffffffffffffffffffffffffffffffffffffff163b119050919050565b600073ffffffffffffffffffffffffffffffffffffffff168273ffffffffffffffffffffffffffffffffffffffff1603611a92576040517f08c379a0000000000000000000000000000000000000000000000000000000008152600401611a8990612eb6565b60405180910390fd5b611a9b816116d0565b15611adb576040517f08c379a0000000000000000000000000000000000000000000000000000000008152600401611ad290612f22565b60405180910390fd5b611ae760008383611814565b6001600360008473ffffffffffffffffffffffffffffffffffffffff1673ffffffffffffffffffffffffffffffffffffffff1681526020019081526020016000206000828254611b379190612b21565b92505081905550816002600083815260200190815260200160002060006101000a81548173ffffffffffffffffffffffffffffffffffffffff021916908373ffffffffffffffffffffffffffffffffffffffff160217905550808273ffffffffffffffffffffffffffffffffffffffff16600073ffffffffffffffffffffffffffffffffffffffff167fddf252ad1be2c89b69c2b068fc378daa952ba7f163c4a11628f55a4df523b3ef60405160405180910390a4611bf860008383611819565b5050565b6000604051905090565b600080fd5b600080fd5b60007fffffffff0000000000000000000000000000000000000000000000000000000082169050919050565b611c4581611c10565b8114611c5057600080fd5b50565b600081359050611c6281611c3c565b92915050565b600060208284031215611c7e57611c7d611c06565b5b6000611c8c84828501611c53565b91505092915050565b60008115159050919050565b611caa81611c95565b82525050565b6000602082019050611cc56000830184611ca1565b92915050565b600081519050919050565b600082825260208201905092915050565b60005b83811015611d05578082015181840152602081019050611cea565b60008484015250505050565b6000601f19601f8301169050919050565b6000611d2d82611ccb565b611d378185611cd6565b9350611d47818560208601611ce7565b611d5081611d11565b840191505092915050565b60006020820190508181036000830152611d758184611d22565b905092915050565b6000819050919050565b611d9081611d7d565b8114611d9b57600080fd5b50565b600081359050611dad81611d87565b92915050565b600060208284031215611dc957611dc8611c06565b5b6000611dd784828501611d9e565b91505092915050565b600073ffffffffffffffffffffffffffffffffffffffff82169050919050565b6000611e0b82611de0565b9050919050565b611e1b81611e00565b82525050565b6000602082019050611e366000830184611e12565b92915050565b611e4581611e00565b8114611e5057600080fd5b50565b600081359050611e6281611e3c565b92915050565b60008060408385031215611e7f57611e7e611c06565b5b6000611e8d85828601611e53565b9250506020611e9e85828601611d9e565b9150509250929050565b600080600060608486031215611ec157611ec0611c06565b5b6000611ecf86828701611e53565b9350506020611ee086828701611e53565b9250506040611ef186828701611d9e565b9150509250925092565b611f0481611d7d565b82525050565b6000602082019050611f1f6000830184611efb565b92915050565b600080fd5b600080fd5b7f4e487b7100000000000000000000000000000000000000000000000000000000600052604160045260246000fd5b611f6782611d11565b810181811067ffffffffffffffff82111715611f8657611f85611f2f565b5b80604052505050565b6000611f99611bfc565b9050611fa58282611f5e565b919050565b600067ffffffffffffffff821115611fc557611fc4611f2f565b5b611fce82611d11565b9050602081019050919050565b82818337600083830152505050565b6000611ffd611ff884611faa565b611f8f565b90508281526020810184848401111561201957612018611f2a565b5b612024848285611fdb565b509392505050565b600082601f83011261204157612040611f25565b5b8135612051848260208601611fea565b91505092915050565b6000806040838503121561207157612070611c06565b5b600061207f85828601611d9e565b925050602083013567ffffffffffffffff8111156120a05761209f611c0b565b5b6120ac8582860161202c565b9150509250929050565b6000602082840312156120cc576120cb611c06565b5b60006120da84828501611e53565b91505092915050565b6120ec81611c95565b81146120f757600080fd5b50565b600081359050612109816120e3565b92915050565b6000806040838503121561212657612125611c06565b5b600061213485828601611e53565b9250506020612145858286016120fa565b9150509250929050565b60006040820190506121646000830185611efb565b81810360208301526121768184611d22565b90509392505050565b600067ffffffffffffffff82111561219a57612199611f2f565b5b6121a382611d11565b9050602081019050919050565b60006121c36121be8461217f565b611f8f565b9050828152602081018484840111156121df576121de611f2a565b5b6121ea848285611fdb565b509392505050565b600082601f83011261220757612206611f25565b5b81356122178482602086016121b0565b91505092915050565b6000806000806080858703121561223a57612239611c06565b5b600061224887828801611e53565b945050602061225987828801611e53565b935050604061226a87828801611d9e565b925050606085013567ffffffffffffffff81111561228b5761228a611c0b565b5b612297878288016121f2565b91505092959194509250565b600080604083850312156122ba576122b9611c06565b5b60006122c885828601611e53565b92505060206122d985828601611e53565b9150509250929050565b7f4e487b7100000000000000000000000000000000000000000000000000000000600052602260045260246000fd5b6000600282049050600182168061232a57607f821691505b60208210810361233d5761233c6122e3565b5b50919050565b7f4552433732313a20617070726f76616c20746f2063757272656e74206f776e6560008201527f7200000000000000000000000000000000000000000000000000000000000000602082015250565b600061239f602183611cd6565b91506123aa82612343565b604082019050919050565b600060208201905081810360008301526123ce81612392565b9050919050565b7f4552433732313a20617070726f76652063616c6c6572206973206e6f7420746f60008201527f6b656e206f776e6572206e6f7220617070726f76656420666f7220616c6c0000602082015250565b6000612431603e83611cd6565b915061243c826123d5565b604082019050919050565b6000602082019050818103600083015261246081612424565b9050919050565b7f4e487b7100000000000000000000000000000000000000000000000000000000600052603260045260246000fd5b7f4552433732313a2063616c6c6572206973206e6f7420746f6b656e206f776e6560008201527f72206e6f7220617070726f766564000000000000000000000000000000000000602082015250565b60006124f2602e83611cd6565b91506124fd82612496565b604082019050919050565b60006020820190508181036000830152612521816124e5565b9050919050565b60008190508160005260206000209050919050565b60006020601f8301049050919050565b600082821b905092915050565b60006008830261258a7fffffffffffffffffffffffffffffffffffffffffffffffffffffffffffffffff8261254d565b612594868361254d565b95508019841693508086168417925050509392505050565b6000819050919050565b60006125d16125cc6125c784611d7d565b6125ac565b611d7d565b9050919050565b6000819050919050565b6125eb836125b6565b6125ff6125f7826125d8565b84845461255a565b825550505050565b600090565b612614612607565b61261f8184846125e2565b505050565b5b818110156126435761263860008261260c565b600181019050612625565b5050565b601f8211156126885761265981612528565b6126628461253d565b81016020851015612671578190505b61268561267d8561253d565b830182612624565b50505b505050565b600082821c905092915050565b60006126ab6000198460080261268d565b1980831691505092915050565b60006126c4838361269a565b9150826002028217905092915050565b6126dd82611ccb565b67ffffffffffffffff8111156126f6576126f5611f2f565b5b6127008254612312565b61270b828285612647565b600060209050601f83116001811461273e576000841561272c578287015190505b61273685826126b8565b86555061279e565b601f19841661274c86612528565b60005b828110156127745784890151825560018201915060208501945060208101905061274f565b86831015612791578489015161278d601f89168261269a565b8355505b6001600288020188555050505b505050505050565b7f4552433732313a20696e76616c696420746f6b656e2049440000000000000000600082015250565b60006127dc601883611cd6565b91506127e7826127a6565b602082019050919050565b6000602082019050818103600083015261280b816127cf565b9050919050565b7f4552433732313a2061646472657373207a65726f206973206e6f74206120766160008201527f6c6964206f776e65720000000000000000000000000000000000000000000000602082015250565b600061286e602983611cd6565b915061287982612812565b604082019050919050565b6000602082019050818103600083015261289d81612861565b9050919050565b7f646174613a6170706c69636174696f6e2f6a736f6e3b6261736536342c000000815250565b600081905092915050565b60006128e082611ccb565b6128ea81856128ca565b93506128fa818560208601611ce7565b80840191505092915050565b6000612911826128a4565b601d8201915061292182846128d5565b915081905092915050565b7f646174613a6170706c69636174696f6e2f6a736f6e3b62617365363400000000600082015250565b6000612962601c836128ca565b915061296d8261292c565b601c82019050919050565b600061298382612955565b915061298f82846128d5565b915081905092915050565b7f4552433732313a207472616e736665722066726f6d20696e636f72726563742060008201527f6f776e6572000000000000000000000000000000000000000000000000000000602082015250565b60006129f6602583611cd6565b9150612a018261299a565b604082019050919050565b60006020820190508181036000830152612a25816129e9565b9050919050565b7f4552433732313a207472616e7366657220746f20746865207a65726f2061646460008201527f7265737300000000000000000000000000000000000000000000000000000000602082015250565b6000612a88602483611cd6565b9150612a9382612a2c565b604082019050919050565b60006020820190508181036000830152612ab781612a7b565b9050919050565b7f4e487b7100000000000000000000000000000000000000000000000000000000600052601160045260246000fd5b6000612af882611d7d565b9150612b0383611d7d565b9250828203905081811115612b1b57612b1a612abe565b5b92915050565b6000612b2c82611d7d565b9150612b3783611d7d565b9250828201905080821115612b4f57612b4e612abe565b5b92915050565b7f4e487b7100000000000000000000000000000000000000000000000000000000600052601260045260246000fd5b6000612b8f82611d7d565b9150612b9a83611d7d565b925082612baa57612ba9612b55565b5b828204905092915050565b6000612bc082611d7d565b9150612bcb83611d7d565b9250828202612bd981611d7d565b91508282048414831517612bf057612bef612abe565b5b5092915050565b7f4552433732313a20617070726f766520746f2063616c6c657200000000000000600082015250565b6000612c2d601983611cd6565b9150612c3882612bf7565b602082019050919050565b60006020820190508181036000830152612c5c81612c20565b9050919050565b7f4552433732313a207472616e7366657220746f206e6f6e20455243373231526560008201527f63656976657220696d706c656d656e7465720000000000000000000000000000602082015250565b6000612cbf603283611cd6565b9150612cca82612c63565b604082019050919050565b60006020820190508181036000830152612cee81612cb2565b9050919050565b7f45524337323155524953746f726167653a2055524920736574206f66206e6f6e60008201527f6578697374656e7420746f6b656e000000000000000000000000000000000000602082015250565b6000612d51602e83611cd6565b9150612d5c82612cf5565b604082019050919050565b60006020820190508181036000830152612d8081612d44565b9050919050565b600081519050919050565b600082825260208201905092915050565b6000612dae82612d87565b612db88185612d92565b9350612dc8818560208601611ce7565b612dd181611d11565b840191505092915050565b6000608082019050612df16000830187611e12565b612dfe6020830186611e12565b612e0b6040830185611efb565b8181036060830152612e1d8184612da3565b905095945050505050565b600081519050612e3781611c3c565b92915050565b600060208284031215612e5357612e52611c06565b5b6000612e6184828501612e28565b91505092915050565b7f4552433732313a206d696e7420746f20746865207a65726f2061646472657373600082015250565b6000612ea0602083611cd6565b9150612eab82612e6a565b602082019050919050565b60006020820190508181036000830152612ecf81612e93565b9050919050565b7f4552433732313a20746f6b656e20616c7265616479206d696e74656400000000600082015250565b6000612f0c601c83611cd6565b9150612f1782612ed6565b602082019050919050565b60006020820190508181036000830152612f3b81612eff565b905091905056fe4142434445464748494a4b4c4d4e4f505152535455565758595a6162636465666768696a6b6c6d6e6f707172737475767778797a303132333435363738392b2fa2646970667358221220950ad965a175d93059f989e47f87727b41b20b83ad2b9f4dcf58f07d3924f01864736f6c63430008110033",
  "linkReferences": {},
  "deployedLinkReferences": {}
}