{
    "_format": "hh-sol-artifact-1",
    "contractName": "JSNFT",
    "sourceName": "contracts/JSNFT.sol",
    "abi": [
        {
            "inputs": [],
            "stateMutability": "nonpayable",
            "type": "constructor"
        },
        {
            "anonymous": false,
            "inputs": [
                {
                    "indexed": true,
                    "internalType": "address",
                    "name": "owner",
                    "type": "address"
                },
                {
                    "indexed": true,
                    "internalType": "address",
                    "name": "approved",
                    "type": "address"
                },
                {
                    "indexed": true,
                    "internalType": "uint256",
                    "name": "tokenId",
                    "type": "uint256"
                }
            ],
            "name": "Approval",
            "type": "event"
        },
        {
            "anonymous": false,
            "inputs": [
                {
                    "indexed": true,
                    "internalType": "address",
                    "name": "owner",
                    "type": "address"
                },
                {
                    "indexed": true,
                    "internalType": "address",
                    "name": "operator",
                    "type": "address"
                },
                {
                    "indexed": false,
                    "internalType": "bool",
                    "name": "approved",
                    "type": "bool"
                }
            ],
            "name": "ApprovalForAll",
            "type": "event"
        },
        {
            "anonymous": false,
            "inputs": [
                {
                    "indexed": true,
                    "internalType": "address",
                    "name": "from",
                    "type": "address"
                },
                {
                    "indexed": true,
                    "internalType": "address",
                    "name": "to",
                    "type": "address"
                },
                {
                    "indexed": true,
                    "internalType": "uint256",
                    "name": "tokenId",
                    "type": "uint256"
                }
            ],
            "name": "Transfer",
            "type": "event"
        },
        {
            "inputs": [
                {
                    "internalType": "uint256",
                    "name": "",
                    "type": "uint256"
                }
            ],
            "name": "_nft_",
            "outputs": [
                {
                    "internalType": "uint256",
                    "name": "_id",
                    "type": "uint256"
                },
                {
                    "internalType": "string",
                    "name": "_data",
                    "type": "string"
                }
            ],
            "stateMutability": "view",
            "type": "function"
        },
        {
            "inputs": [
                {
                    "internalType": "uint256",
                    "name": "_itemID",
                    "type": "uint256"
                },
                {
                    "internalType": "string",
                    "name": "_nftData",
                    "type": "string"
                }
            ],
            "name": "addNFT",
            "outputs": [],
            "stateMutability": "nonpayable",
            "type": "function"
        },
        {
            "inputs": [
                {
                    "internalType": "address",
                    "name": "to",
                    "type": "address"
                },
                {
                    "internalType": "uint256",
                    "name": "tokenId",
                    "type": "uint256"
                }
            ],
            "name": "approve",
            "outputs": [],
            "stateMutability": "nonpayable",
            "type": "function"
        },
        {
            "inputs": [
                {
                    "internalType": "address",
                    "name": "owner",
                    "type": "address"
                }
            ],
            "name": "balanceOf",
            "outputs": [
                {
                    "internalType": "uint256",
                    "name": "",
                    "type": "uint256"
                }
            ],
            "stateMutability": "view",
            "type": "function"
        },
        {
            "inputs": [
                {
                    "internalType": "uint256",
                    "name": "tokenId",
                    "type": "uint256"
                }
            ],
            "name": "getApproved",
            "outputs": [
                {
                    "internalType": "address",
                    "name": "",
                    "type": "address"
                }
            ],
            "stateMutability": "view",
            "type": "function"
        },
        {
            "inputs": [],
            "name": "getNFTCount",
            "outputs": [
                {
                    "internalType": "uint256",
                    "name": "",
                    "type": "uint256"
                }
            ],
            "stateMutability": "view",
            "type": "function"
        },
        {
            "inputs": [
                {
                    "internalType": "uint256",
                    "name": "_itemID",
                    "type": "uint256"
                }
            ],
            "name": "getNFTData",
            "outputs": [
                {
                    "internalType": "string",
                    "name": "",
                    "type": "string"
                }
            ],
            "stateMutability": "view",
            "type": "function"
        },
        {
            "inputs": [
                {
                    "internalType": "uint256",
                    "name": "",
                    "type": "uint256"
                }
            ],
            "name": "idToNFT",
            "outputs": [
                {
                    "internalType": "string",
                    "name": "",
                    "type": "string"
                }
            ],
            "stateMutability": "view",
            "type": "function"
        },
        {
            "inputs": [
                {
                    "internalType": "address",
                    "name": "owner",
                    "type": "address"
                },
                {
                    "internalType": "address",
                    "name": "operator",
                    "type": "address"
                }
            ],
            "name": "isApprovedForAll",
            "outputs": [
                {
                    "internalType": "bool",
                    "name": "",
                    "type": "bool"
                }
            ],
            "stateMutability": "view",
            "type": "function"
        },
        {
            "inputs": [
                {
                    "internalType": "uint256",
                    "name": "_itemID",
                    "type": "uint256"
                },
                {
                    "internalType": "string",
                    "name": "_nftData",
                    "type": "string"
                }
            ],
            "name": "makeJSNFT",
            "outputs": [],
            "stateMutability": "nonpayable",
            "type": "function"
        },
        {
            "inputs": [],
            "name": "name",
            "outputs": [
                {
                    "internalType": "string",
                    "name": "",
                    "type": "string"
                }
            ],
            "stateMutability": "view",
            "type": "function"
        },
        {
            "inputs": [
                {
                    "internalType": "uint256",
                    "name": "tokenId",
                    "type": "uint256"
                }
            ],
            "name": "ownerOf",
            "outputs": [
                {
                    "internalType": "address",
                    "name": "",
                    "type": "address"
                }
            ],
            "stateMutability": "view",
            "type": "function"
        },
        {
            "inputs": [
                {
                    "internalType": "address",
                    "name": "from",
                    "type": "address"
                },
                {
                    "internalType": "address",
                    "name": "to",
                    "type": "address"
                },
                {
                    "internalType": "uint256",
                    "name": "tokenId",
                    "type": "uint256"
                }
            ],
            "name": "safeTransferFrom",
            "outputs": [],
            "stateMutability": "nonpayable",
            "type": "function"
        },
        {
            "inputs": [
                {
                    "internalType": "address",
                    "name": "from",
                    "type": "address"
                },
                {
                    "internalType": "address",
                    "name": "to",
                    "type": "address"
                },
                {
                    "internalType": "uint256",
                    "name": "tokenId",
                    "type": "uint256"
                },
                {
                    "internalType": "bytes",
                    "name": "data",
                    "type": "bytes"
                }
            ],
            "name": "safeTransferFrom",
            "outputs": [],
            "stateMutability": "nonpayable",
            "type": "function"
        },
        {
            "inputs": [
                {
                    "internalType": "address",
                    "name": "operator",
                    "type": "address"
                },
                {
                    "internalType": "bool",
                    "name": "approved",
                    "type": "bool"
                }
            ],
            "name": "setApprovalForAll",
            "outputs": [],
            "stateMutability": "nonpayable",
            "type": "function"
        },
        {
            "inputs": [
                {
                    "internalType": "bytes4",
                    "name": "interfaceId",
                    "type": "bytes4"
                }
            ],
            "name": "supportsInterface",
            "outputs": [
                {
                    "internalType": "bool",
                    "name": "",
                    "type": "bool"
                }
            ],
            "stateMutability": "view",
            "type": "function"
        },
        {
            "inputs": [],
            "name": "symbol",
            "outputs": [
                {
                    "internalType": "string",
                    "name": "",
                    "type": "string"
                }
            ],
            "stateMutability": "view",
            "type": "function"
        },
        {
            "inputs": [
                {
                    "internalType": "uint256",
                    "name": "_tokenId",
                    "type": "uint256"
                }
            ],
            "name": "tokenURI",
            "outputs": [
                {
                    "internalType": "string",
                    "name": "",
                    "type": "string"
                }
            ],
            "stateMutability": "view",
            "type": "function"
        },
        {
            "inputs": [
                {
                    "internalType": "address",
                    "name": "from",
                    "type": "address"
                },
                {
                    "internalType": "address",
                    "name": "to",
                    "type": "address"
                },
                {
                    "internalType": "uint256",
                    "name": "tokenId",
                    "type": "uint256"
                }
            ],
            "name": "transferFrom",
            "outputs": [],
            "stateMutability": "nonpayable",
            "type": "function"
        }
    ],
    "bytecode": "0x60806040523480156200001157600080fd5b506040518060400160405280600581526020017f6a734e46540000000000000000000000000000000000000000000000000000008152506040518060400160405280600581526020017f4a534e465400000000000000000000000000000000000000000000000000000081525081600090816200008f91906200043b565b508060019081620000a191906200043b565b505050620000ef6040518060400160405280601581526020017f4e465420636f6e7472616374206465706c6f7965640000000000000000000000815250620000f560201b62000eb21760201c565b620005d5565b62000195816040516024016200010c9190620005b1565b6040516020818303038152906040527f41304fac000000000000000000000000000000000000000000000000000000007bffffffffffffffffffffffffffffffffffffffffffffffffffffffff19166020820180517bffffffffffffffffffffffffffffffffffffffffffffffffffffffff83818316178352505050506200019860201b60201c565b50565b60008151905060006a636f6e736f6c652e6c6f679050602083016000808483855afa5050505050565b600081519050919050565b7f4e487b7100000000000000000000000000000000000000000000000000000000600052604160045260246000fd5b7f4e487b7100000000000000000000000000000000000000000000000000000000600052602260045260246000fd5b600060028204905060018216806200024357607f821691505b602082108103620002595762000258620001fb565b5b50919050565b60008190508160005260206000209050919050565b60006020601f8301049050919050565b600082821b905092915050565b600060088302620002c37fffffffffffffffffffffffffffffffffffffffffffffffffffffffffffffffff8262000284565b620002cf868362000284565b95508019841693508086168417925050509392505050565b6000819050919050565b6000819050919050565b60006200031c620003166200031084620002e7565b620002f1565b620002e7565b9050919050565b6000819050919050565b6200033883620002fb565b62000350620003478262000323565b84845462000291565b825550505050565b600090565b6200036762000358565b620003748184846200032d565b505050565b5b818110156200039c57620003906000826200035d565b6001810190506200037a565b5050565b601f821115620003eb57620003b5816200025f565b620003c08462000274565b81016020851015620003d0578190505b620003e8620003df8562000274565b83018262000379565b50505b505050565b600082821c905092915050565b60006200041060001984600802620003f0565b1980831691505092915050565b60006200042b8383620003fd565b9150826002028217905092915050565b6200044682620001c1565b67ffffffffffffffff811115620004625762000461620001cc565b5b6200046e82546200022a565b6200047b828285620003a0565b600060209050601f831160018114620004b357600084156200049e578287015190505b620004aa85826200041d565b8655506200051a565b601f198416620004c3866200025f565b60005b82811015620004ed57848901518255600182019150602085019450602081019050620004c6565b868310156200050d578489015162000509601f891682620003fd565b8355505b6001600288020188555050505b505050505050565b600082825260208201905092915050565b60005b838110156200055357808201518184015260208101905062000536565b60008484015250505050565b6000601f19601f8301169050919050565b60006200057d82620001c1565b62000589818562000522565b93506200059b81856020860162000533565b620005a6816200055f565b840191505092915050565b60006020820190508181036000830152620005cd818462000570565b905092915050565b612fcf80620005e56000396000f3fe608060405234801561001057600080fd5b50600436106101215760003560e01c8063605c454b116100ad578063aba1803711610071578063aba180371461032c578063b88d4fde1461035d578063c87b56dd14610379578063e43edbc0146103a9578063e985e9c5146103c557610121565b8063605c454b146102765780636352211e1461029257806370a08231146102c257806395d89b41146102f2578063a22cb4651461031057610121565b80630ad4c4f4116100f45780630ad4c4f4146101c057806323b872dd146101f057806333aa49cd1461020c57806342842e0e1461023c578063542796371461025857610121565b806301ffc9a71461012657806306fdde0314610156578063081812fc14610174578063095ea7b3146101a4575b600080fd5b610140600480360381019061013b9190611c7f565b6103f5565b60405161014d9190611cc7565b60405180910390f35b61015e6104d7565b60405161016b9190611d72565b60405180910390f35b61018e60048036038101906101899190611dca565b610569565b60405161019b9190611e38565b60405180910390f35b6101be60048036038101906101b99190611e7f565b6105af565b005b6101da60048036038101906101d59190611dca565b6106c6565b6040516101e79190611d72565b60405180910390f35b61020a60048036038101906102059190611ebf565b61077d565b005b61022660048036038101906102219190611dca565b6107dd565b6040516102339190611d72565b60405180910390f35b61025660048036038101906102519190611ebf565b61087d565b005b61026061089d565b60405161026d9190611f21565b60405180910390f35b610290600480360381019061028b9190612071565b6108aa565b005b6102ac60048036038101906102a79190611dca565b6109b2565b6040516102b99190611e38565b60405180910390f35b6102dc60048036038101906102d791906120cd565b610a63565b6040516102e99190611f21565b60405180910390f35b6102fa610b1a565b6040516103079190611d72565b60405180910390f35b61032a60048036038101906103259190612126565b610bac565b005b61034660048036038101906103419190611dca565b610bc2565b604051610354929190612166565b60405180910390f35b61037760048036038101906103729190612237565b610c7e565b005b610393600480360381019061038e9190611dca565b610ce0565b6040516103a09190611d72565b60405180910390f35b6103c360048036038101906103be9190612071565b610d42565b005b6103df60048036038101906103da91906122ba565b610e1e565b6040516103ec9190611cc7565b60405180910390f35b60007f80ac58cd000000000000000000000000000000000000000000000000000000007bffffffffffffffffffffffffffffffffffffffffffffffffffffffff1916827bffffffffffffffffffffffffffffffffffffffffffffffffffffffff191614806104c057507f5b5e139f000000000000000000000000000000000000000000000000000000007bffffffffffffffffffffffffffffffffffffffffffffffffffffffff1916827bffffffffffffffffffffffffffffffffffffffffffffffffffffffff1916145b806104d057506104cf82610f4b565b5b9050919050565b6060600080546104e690612329565b80601f016020809104026020016040519081016040528092919081815260200182805461051290612329565b801561055f5780601f106105345761010080835404028352916020019161055f565b820191906000526020600020905b81548152906001019060200180831161054257829003601f168201915b5050505050905090565b600061057482610fb5565b6004600083815260200190815260200160002060009054906101000a900473ffffffffffffffffffffffffffffffffffffffff169050919050565b60006105ba826109b2565b90508073ffffffffffffffffffffffffffffffffffffffff168373ffffffffffffffffffffffffffffffffffffffff160361062a576040517f08c379a0000000000000000000000000000000000000000000000000000000008152600401610621906123cc565b60405180910390fd5b8073ffffffffffffffffffffffffffffffffffffffff16610649611000565b73ffffffffffffffffffffffffffffffffffffffff161480610678575061067781610672611000565b610e1e565b5b6106b7576040517f08c379a00000000000000000000000000000000000000000000000000000000081526004016106ae9061245e565b60405180910390fd5b6106c18383611008565b505050565b6060600a82815481106106dc576106db61247e565b5b906000526020600020906002020160010180546106f890612329565b80601f016020809104026020016040519081016040528092919081815260200182805461072490612329565b80156107715780601f1061074657610100808354040283529160200191610771565b820191906000526020600020905b81548152906001019060200180831161075457829003601f168201915b50505050509050919050565b61078e610788611000565b826110c1565b6107cd576040517f08c379a00000000000000000000000000000000000000000000000000000000081526004016107c49061251f565b60405180910390fd5b6107d8838383611156565b505050565b600b60205280600052604060002060009150905080546107fc90612329565b80601f016020809104026020016040519081016040528092919081815260200182805461082890612329565b80156108755780601f1061084a57610100808354040283529160200191610875565b820191906000526020600020905b81548152906001019060200180831161085857829003601f168201915b505050505081565b61089883838360405180602001604052806000815250610c7e565b505050565b6000600a80549050905090565b6108b3816113bc565b600790816108c191906126eb565b50600a6040518060400160405280848152602001600780546108e290612329565b80601f016020809104026020016040519081016040528092919081815260200182805461090e90612329565b801561095b5780601f106109305761010080835404028352916020019161095b565b820191906000526020600020905b81548152906001019060200180831161093e57829003601f168201915b505050505081525090806001815401808255809150506001900390600052602060002090600202016000909190919091506000820151816000015560208201518160010190816109ab91906126eb565b5050505050565b6000806002600084815260200190815260200160002060009054906101000a900473ffffffffffffffffffffffffffffffffffffffff169050600073ffffffffffffffffffffffffffffffffffffffff168173ffffffffffffffffffffffffffffffffffffffff1603610a5a576040517f08c379a0000000000000000000000000000000000000000000000000000000008152600401610a5190612809565b60405180910390fd5b80915050919050565b60008073ffffffffffffffffffffffffffffffffffffffff168273ffffffffffffffffffffffffffffffffffffffff1603610ad3576040517f08c379a0000000000000000000000000000000000000000000000000000000008152600401610aca9061289b565b60405180910390fd5b600360008373ffffffffffffffffffffffffffffffffffffffff1673ffffffffffffffffffffffffffffffffffffffff168152602001908152602001600020549050919050565b606060018054610b2990612329565b80601f0160208091040260200160405190810160405280929190818152602001828054610b5590612329565b8015610ba25780601f10610b7757610100808354040283529160200191610ba2565b820191906000526020600020905b815481529060010190602001808311610b8557829003601f168201915b5050505050905090565b610bbe610bb7611000565b838361151f565b5050565b600a8181548110610bd257600080fd5b9060005260206000209060020201600091509050806000015490806001018054610bfb90612329565b80601f0160208091040260200160405190810160405280929190818152602001828054610c2790612329565b8015610c745780601f10610c4957610100808354040283529160200191610c74565b820191906000526020600020905b815481529060010190602001808311610c5757829003601f168201915b5050505050905082565b610c8f610c89611000565b836110c1565b610cce576040517f08c379a0000000000000000000000000000000000000000000000000000000008152600401610cc59061251f565b60405180910390fd5b610cda8484848461168b565b50505050565b6060610ceb826116e7565b610cf457600080fd5b610cfd826106c6565b604051602001610d0d919061291d565b604051602081830303815290604052604051602001610d2c919061298f565b6040516020818303038152906040529050919050565b610d4c82826108aa565b6000610d58600c611753565b9050610d64600c611753565b60098190555082600881905550610d7b3382611761565b610e0f8160078054610d8c90612329565b80601f0160208091040260200160405190810160405280929190818152602001828054610db890612329565b8015610e055780601f10610dda57610100808354040283529160200191610e05565b820191906000526020600020905b815481529060010190602001808311610de857829003601f168201915b505050505061177f565b610e19600c6117ec565b505050565b6000600560008473ffffffffffffffffffffffffffffffffffffffff1673ffffffffffffffffffffffffffffffffffffffff16815260200190815260200160002060008373ffffffffffffffffffffffffffffffffffffffff1673ffffffffffffffffffffffffffffffffffffffff16815260200190815260200160002060009054906101000a900460ff16905092915050565b610f4881604051602401610ec69190611d72565b6040516020818303038152906040527f41304fac000000000000000000000000000000000000000000000000000000007bffffffffffffffffffffffffffffffffffffffffffffffffffffffff19166020820180517bffffffffffffffffffffffffffffffffffffffffffffffffffffffff8381831617835250505050611802565b50565b60007f01ffc9a7000000000000000000000000000000000000000000000000000000007bffffffffffffffffffffffffffffffffffffffffffffffffffffffff1916827bffffffffffffffffffffffffffffffffffffffffffffffffffffffff1916149050919050565b610fbe816116e7565b610ffd576040517f08c379a0000000000000000000000000000000000000000000000000000000008152600401610ff490612809565b60405180910390fd5b50565b600033905090565b816004600083815260200190815260200160002060006101000a81548173ffffffffffffffffffffffffffffffffffffffff021916908373ffffffffffffffffffffffffffffffffffffffff160217905550808273ffffffffffffffffffffffffffffffffffffffff1661107b836109b2565b73ffffffffffffffffffffffffffffffffffffffff167f8c5be1e5ebec7d5bd14f71427d1e84f3dd0314c0f7b2291e5b200ac8c7c3b92560405160405180910390a45050565b6000806110cd836109b2565b90508073ffffffffffffffffffffffffffffffffffffffff168473ffffffffffffffffffffffffffffffffffffffff16148061110f575061110e8185610e1e565b5b8061114d57508373ffffffffffffffffffffffffffffffffffffffff1661113584610569565b73ffffffffffffffffffffffffffffffffffffffff16145b91505092915050565b8273ffffffffffffffffffffffffffffffffffffffff16611176826109b2565b73ffffffffffffffffffffffffffffffffffffffff16146111cc576040517f08c379a00000000000000000000000000000000000000000000000000000000081526004016111c390612a23565b60405180910390fd5b600073ffffffffffffffffffffffffffffffffffffffff168273ffffffffffffffffffffffffffffffffffffffff160361123b576040517f08c379a000000000000000000000000000000000000000000000000000000000815260040161123290612ab5565b60405180910390fd5b61124683838361182b565b611251600082611008565b6001600360008573ffffffffffffffffffffffffffffffffffffffff1673ffffffffffffffffffffffffffffffffffffffff16815260200190815260200160002060008282546112a19190612b04565b925050819055506001600360008473ffffffffffffffffffffffffffffffffffffffff1673ffffffffffffffffffffffffffffffffffffffff16815260200190815260200160002060008282546112f89190612b38565b92505081905550816002600083815260200190815260200160002060006101000a81548173ffffffffffffffffffffffffffffffffffffffff021916908373ffffffffffffffffffffffffffffffffffffffff160217905550808273ffffffffffffffffffffffffffffffffffffffff168473ffffffffffffffffffffffffffffffffffffffff167fddf252ad1be2c89b69c2b068fc378daa952ba7f163c4a11628f55a4df523b3ef60405160405180910390a46113b7838383611830565b505050565b606060008251036113de5760405180602001604052806000815250905061151a565b6000604051806060016040528060408152602001612f5a604091399050600060036002855161140d9190612b38565b6114179190612b9b565b60046114239190612bcc565b67ffffffffffffffff81111561143c5761143b611f46565b5b6040519080825280601f01601f19166020018201604052801561146e5781602001600182028036833780820191505090505b509050600182016020820185865187015b808210156114da576003820191508151603f8160121c168501518453600184019350603f81600c1c168501518453600184019350603f8160061c168501518453600184019350603f811685015184536001840193505061147f565b50506003865106600181146114f6576002811461150957611511565b603d6001830353603d6002830353611511565b603d60018303535b50505080925050505b919050565b8173ffffffffffffffffffffffffffffffffffffffff168373ffffffffffffffffffffffffffffffffffffffff160361158d576040517f08c379a000000000000000000000000000000000000000000000000000000000815260040161158490612c5a565b60405180910390fd5b80600560008573ffffffffffffffffffffffffffffffffffffffff1673ffffffffffffffffffffffffffffffffffffffff16815260200190815260200160002060008473ffffffffffffffffffffffffffffffffffffffff1673ffffffffffffffffffffffffffffffffffffffff16815260200190815260200160002060006101000a81548160ff0219169083151502179055508173ffffffffffffffffffffffffffffffffffffffff168373ffffffffffffffffffffffffffffffffffffffff167f17307eab39ab6107e8899845ad3d59bd9653f200f220920489ca2b5937696c318360405161167e9190611cc7565b60405180910390a3505050565b611696848484611156565b6116a284848484611835565b6116e1576040517f08c379a00000000000000000000000000000000000000000000000000000000081526004016116d890612cec565b60405180910390fd5b50505050565b60008073ffffffffffffffffffffffffffffffffffffffff166002600084815260200190815260200160002060009054906101000a900473ffffffffffffffffffffffffffffffffffffffff1673ffffffffffffffffffffffffffffffffffffffff1614159050919050565b600081600001549050919050565b61177b8282604051806020016040528060008152506119bc565b5050565b611788826116e7565b6117c7576040517f08c379a00000000000000000000000000000000000000000000000000000000081526004016117be90612d7e565b60405180910390fd5b806006600084815260200190815260200160002090816117e791906126eb565b505050565b6001816000016000828254019250508190555050565b60008151905060006a636f6e736f6c652e6c6f679050602083016000808483855afa5050505050565b505050565b505050565b60006118568473ffffffffffffffffffffffffffffffffffffffff16611a17565b156119af578373ffffffffffffffffffffffffffffffffffffffff1663150b7a0261187f611000565b8786866040518563ffffffff1660e01b81526004016118a19493929190612df3565b6020604051808303816000875af19250505080156118dd57506040513d601f19601f820116820180604052508101906118da9190612e54565b60015b61195f573d806000811461190d576040519150601f19603f3d011682016040523d82523d6000602084013e611912565b606091505b506000815103611957576040517f08c379a000000000000000000000000000000000000000000000000000000000815260040161194e90612cec565b60405180910390fd5b805181602001fd5b63150b7a0260e01b7bffffffffffffffffffffffffffffffffffffffffffffffffffffffff1916817bffffffffffffffffffffffffffffffffffffffffffffffffffffffff1916149150506119b4565b600190505b949350505050565b6119c68383611a3a565b6119d36000848484611835565b611a12576040517f08c379a0000000000000000000000000000000000000000000000000000000008152600401611a0990612cec565b60405180910390fd5b505050565b6000808273ffffffffffffffffffffffffffffffffffffffff163b119050919050565b600073ffffffffffffffffffffffffffffffffffffffff168273ffffffffffffffffffffffffffffffffffffffff1603611aa9576040517f08c379a0000000000000000000000000000000000000000000000000000000008152600401611aa090612ecd565b60405180910390fd5b611ab2816116e7565b15611af2576040517f08c379a0000000000000000000000000000000000000000000000000000000008152600401611ae990612f39565b60405180910390fd5b611afe6000838361182b565b6001600360008473ffffffffffffffffffffffffffffffffffffffff1673ffffffffffffffffffffffffffffffffffffffff1681526020019081526020016000206000828254611b4e9190612b38565b92505081905550816002600083815260200190815260200160002060006101000a81548173ffffffffffffffffffffffffffffffffffffffff021916908373ffffffffffffffffffffffffffffffffffffffff160217905550808273ffffffffffffffffffffffffffffffffffffffff16600073ffffffffffffffffffffffffffffffffffffffff167fddf252ad1be2c89b69c2b068fc378daa952ba7f163c4a11628f55a4df523b3ef60405160405180910390a4611c0f60008383611830565b5050565b6000604051905090565b600080fd5b600080fd5b60007fffffffff0000000000000000000000000000000000000000000000000000000082169050919050565b611c5c81611c27565b8114611c6757600080fd5b50565b600081359050611c7981611c53565b92915050565b600060208284031215611c9557611c94611c1d565b5b6000611ca384828501611c6a565b91505092915050565b60008115159050919050565b611cc181611cac565b82525050565b6000602082019050611cdc6000830184611cb8565b92915050565b600081519050919050565b600082825260208201905092915050565b60005b83811015611d1c578082015181840152602081019050611d01565b60008484015250505050565b6000601f19601f8301169050919050565b6000611d4482611ce2565b611d4e8185611ced565b9350611d5e818560208601611cfe565b611d6781611d28565b840191505092915050565b60006020820190508181036000830152611d8c8184611d39565b905092915050565b6000819050919050565b611da781611d94565b8114611db257600080fd5b50565b600081359050611dc481611d9e565b92915050565b600060208284031215611de057611ddf611c1d565b5b6000611dee84828501611db5565b91505092915050565b600073ffffffffffffffffffffffffffffffffffffffff82169050919050565b6000611e2282611df7565b9050919050565b611e3281611e17565b82525050565b6000602082019050611e4d6000830184611e29565b92915050565b611e5c81611e17565b8114611e6757600080fd5b50565b600081359050611e7981611e53565b92915050565b60008060408385031215611e9657611e95611c1d565b5b6000611ea485828601611e6a565b9250506020611eb585828601611db5565b9150509250929050565b600080600060608486031215611ed857611ed7611c1d565b5b6000611ee686828701611e6a565b9350506020611ef786828701611e6a565b9250506040611f0886828701611db5565b9150509250925092565b611f1b81611d94565b82525050565b6000602082019050611f366000830184611f12565b92915050565b600080fd5b600080fd5b7f4e487b7100000000000000000000000000000000000000000000000000000000600052604160045260246000fd5b611f7e82611d28565b810181811067ffffffffffffffff82111715611f9d57611f9c611f46565b5b80604052505050565b6000611fb0611c13565b9050611fbc8282611f75565b919050565b600067ffffffffffffffff821115611fdc57611fdb611f46565b5b611fe582611d28565b9050602081019050919050565b82818337600083830152505050565b600061201461200f84611fc1565b611fa6565b9050828152602081018484840111156120305761202f611f41565b5b61203b848285611ff2565b509392505050565b600082601f83011261205857612057611f3c565b5b8135612068848260208601612001565b91505092915050565b6000806040838503121561208857612087611c1d565b5b600061209685828601611db5565b925050602083013567ffffffffffffffff8111156120b7576120b6611c22565b5b6120c385828601612043565b9150509250929050565b6000602082840312156120e3576120e2611c1d565b5b60006120f184828501611e6a565b91505092915050565b61210381611cac565b811461210e57600080fd5b50565b600081359050612120816120fa565b92915050565b6000806040838503121561213d5761213c611c1d565b5b600061214b85828601611e6a565b925050602061215c85828601612111565b9150509250929050565b600060408201905061217b6000830185611f12565b818103602083015261218d8184611d39565b90509392505050565b600067ffffffffffffffff8211156121b1576121b0611f46565b5b6121ba82611d28565b9050602081019050919050565b60006121da6121d584612196565b611fa6565b9050828152602081018484840111156121f6576121f5611f41565b5b612201848285611ff2565b509392505050565b600082601f83011261221e5761221d611f3c565b5b813561222e8482602086016121c7565b91505092915050565b6000806000806080858703121561225157612250611c1d565b5b600061225f87828801611e6a565b945050602061227087828801611e6a565b935050604061228187828801611db5565b925050606085013567ffffffffffffffff8111156122a2576122a1611c22565b5b6122ae87828801612209565b91505092959194509250565b600080604083850312156122d1576122d0611c1d565b5b60006122df85828601611e6a565b92505060206122f085828601611e6a565b9150509250929050565b7f4e487b7100000000000000000000000000000000000000000000000000000000600052602260045260246000fd5b6000600282049050600182168061234157607f821691505b602082108103612354576123536122fa565b5b50919050565b7f4552433732313a20617070726f76616c20746f2063757272656e74206f776e6560008201527f7200000000000000000000000000000000000000000000000000000000000000602082015250565b60006123b6602183611ced565b91506123c18261235a565b604082019050919050565b600060208201905081810360008301526123e5816123a9565b9050919050565b7f4552433732313a20617070726f76652063616c6c6572206973206e6f7420746f60008201527f6b656e206f776e6572206e6f7220617070726f76656420666f7220616c6c0000602082015250565b6000612448603e83611ced565b9150612453826123ec565b604082019050919050565b600060208201905081810360008301526124778161243b565b9050919050565b7f4e487b7100000000000000000000000000000000000000000000000000000000600052603260045260246000fd5b7f4552433732313a2063616c6c6572206973206e6f7420746f6b656e206f776e6560008201527f72206e6f7220617070726f766564000000000000000000000000000000000000602082015250565b6000612509602e83611ced565b9150612514826124ad565b604082019050919050565b60006020820190508181036000830152612538816124fc565b9050919050565b60008190508160005260206000209050919050565b60006020601f8301049050919050565b600082821b905092915050565b6000600883026125a17fffffffffffffffffffffffffffffffffffffffffffffffffffffffffffffffff82612564565b6125ab8683612564565b95508019841693508086168417925050509392505050565b6000819050919050565b60006125e86125e36125de84611d94565b6125c3565b611d94565b9050919050565b6000819050919050565b612602836125cd565b61261661260e826125ef565b848454612571565b825550505050565b600090565b61262b61261e565b6126368184846125f9565b505050565b5b8181101561265a5761264f600082612623565b60018101905061263c565b5050565b601f82111561269f576126708161253f565b61267984612554565b81016020851015612688578190505b61269c61269485612554565b83018261263b565b50505b505050565b600082821c905092915050565b60006126c2600019846008026126a4565b1980831691505092915050565b60006126db83836126b1565b9150826002028217905092915050565b6126f482611ce2565b67ffffffffffffffff81111561270d5761270c611f46565b5b6127178254612329565b61272282828561265e565b600060209050601f8311600181146127555760008415612743578287015190505b61274d85826126cf565b8655506127b5565b601f1984166127638661253f565b60005b8281101561278b57848901518255600182019150602085019450602081019050612766565b868310156127a857848901516127a4601f8916826126b1565b8355505b6001600288020188555050505b505050505050565b7f4552433732313a20696e76616c696420746f6b656e2049440000000000000000600082015250565b60006127f3601883611ced565b91506127fe826127bd565b602082019050919050565b60006020820190508181036000830152612822816127e6565b9050919050565b7f4552433732313a2061646472657373207a65726f206973206e6f74206120766160008201527f6c6964206f776e65720000000000000000000000000000000000000000000000602082015250565b6000612885602983611ced565b915061289082612829565b604082019050919050565b600060208201905081810360008301526128b481612878565b9050919050565b7f646174613a6170706c69636174696f6e2f6a736f6e3b6261736536342c000000815250565b600081905092915050565b60006128f782611ce2565b61290181856128e1565b9350612911818560208601611cfe565b80840191505092915050565b6000612928826128bb565b601d8201915061293882846128ec565b915081905092915050565b7f646174613a6170706c69636174696f6e2f6a736f6e3b62617365363400000000600082015250565b6000612979601c836128e1565b915061298482612943565b601c82019050919050565b600061299a8261296c565b91506129a682846128ec565b915081905092915050565b7f4552433732313a207472616e736665722066726f6d20696e636f72726563742060008201527f6f776e6572000000000000000000000000000000000000000000000000000000602082015250565b6000612a0d602583611ced565b9150612a18826129b1565b604082019050919050565b60006020820190508181036000830152612a3c81612a00565b9050919050565b7f4552433732313a207472616e7366657220746f20746865207a65726f2061646460008201527f7265737300000000000000000000000000000000000000000000000000000000602082015250565b6000612a9f602483611ced565b9150612aaa82612a43565b604082019050919050565b60006020820190508181036000830152612ace81612a92565b9050919050565b7f4e487b7100000000000000000000000000000000000000000000000000000000600052601160045260246000fd5b6000612b0f82611d94565b9150612b1a83611d94565b9250828203905081811115612b3257612b31612ad5565b5b92915050565b6000612b4382611d94565b9150612b4e83611d94565b9250828201905080821115612b6657612b65612ad5565b5b92915050565b7f4e487b7100000000000000000000000000000000000000000000000000000000600052601260045260246000fd5b6000612ba682611d94565b9150612bb183611d94565b925082612bc157612bc0612b6c565b5b828204905092915050565b6000612bd782611d94565b9150612be283611d94565b9250828202612bf081611d94565b91508282048414831517612c0757612c06612ad5565b5b5092915050565b7f4552433732313a20617070726f766520746f2063616c6c657200000000000000600082015250565b6000612c44601983611ced565b9150612c4f82612c0e565b602082019050919050565b60006020820190508181036000830152612c7381612c37565b9050919050565b7f4552433732313a207472616e7366657220746f206e6f6e20455243373231526560008201527f63656976657220696d706c656d656e7465720000000000000000000000000000602082015250565b6000612cd6603283611ced565b9150612ce182612c7a565b604082019050919050565b60006020820190508181036000830152612d0581612cc9565b9050919050565b7f45524337323155524953746f726167653a2055524920736574206f66206e6f6e60008201527f6578697374656e7420746f6b656e000000000000000000000000000000000000602082015250565b6000612d68602e83611ced565b9150612d7382612d0c565b604082019050919050565b60006020820190508181036000830152612d9781612d5b565b9050919050565b600081519050919050565b600082825260208201905092915050565b6000612dc582612d9e565b612dcf8185612da9565b9350612ddf818560208601611cfe565b612de881611d28565b840191505092915050565b6000608082019050612e086000830187611e29565b612e156020830186611e29565b612e226040830185611f12565b8181036060830152612e348184612dba565b905095945050505050565b600081519050612e4e81611c53565b92915050565b600060208284031215612e6a57612e69611c1d565b5b6000612e7884828501612e3f565b91505092915050565b7f4552433732313a206d696e7420746f20746865207a65726f2061646472657373600082015250565b6000612eb7602083611ced565b9150612ec282612e81565b602082019050919050565b60006020820190508181036000830152612ee681612eaa565b9050919050565b7f4552433732313a20746f6b656e20616c7265616479206d696e74656400000000600082015250565b6000612f23601c83611ced565b9150612f2e82612eed565b602082019050919050565b60006020820190508181036000830152612f5281612f16565b905091905056fe4142434445464748494a4b4c4d4e4f505152535455565758595a6162636465666768696a6b6c6d6e6f707172737475767778797a303132333435363738392b2fa26469706673582212207eefe3cb4fc6ee752e71af369fa1aeb06143613b19c3e1f7cd8167469441912164736f6c63430008110033",
    "linkReferences": {},
    "deployedLinkReferences": {}
}